:1000000012C02CC02BC02AC029C028C027C026C0BF
:1000100025C024C023C022C021C020C01FC01EC0D4
:100020001DC01CC01BC011241FBECFE5D4E0DEBF25
:10003000CDBF10E0A0E6B0E0EAEEFBE002C0059024
:100040000D92AC36B107D9F710E0ACE6B0E001C0D4
:100050001D92A937B107E1F702D0C5C5D1CFFF92F4
:100060000F931F93CF93DF938FE39CE90197F1F7F1
:1000700000C0000080E490E068E340E01ED282E32C
:10008000A0D2D4C0F02EFF0CFF0CFF0C8F2D90E0FF
:100090006FEF40E020E0F6D0CF2DD0E0CE0101960A
:1000A0006FEF4EE520E0EED0CE0102966FEF44EE0A
:1000B00020E0E8D0CE0103966DE14BED26E1E2D0E1
:1000C000CE01049660E040E02FEFDCD0CE01059633
:1000D00061E040E02FEFD6D0CE0106966FE340E01E
:1000E00029E9D0D0CE0107966FEF40E02DEDCAD0C0
:1000F0008AD18FEF91EEA4E081509040A040E1F7CB
:1001000000C000000F5F1F4F083011050CF4BACF7C
:100110008FEF99E6A8E181509040A040E1F700C040
:100120000000C0E4D0E0CE0146D28FEF96E7A1E018
:1001300081509040A040E1F700C0000021979FEF60
:10014000CF3FD90781F708E3802F90E040E050E0EF
:100150006FEF70E0F5D0C02FD0E0CE01019640E007
:100160005EE56FEF70E0ECD0CE01029640E054EE19
:100170006FEF70E0E5D0CE01039646E15BED6DE1F7
:1001800070E0DED0CE0104964FEF50E060E070E00A
:10019000D7D0CE0105964FEF50E061E070E0D0D0AF
:1001A000CE01069649E950E06FE370E0C9D0CE0178
:1001B00007964DED50E06FEF70E0C2D024D18FEF85
:1001C00091EEA4E081509040A040E1F700C0000013
:1001D0000850083F09F0B8CF8FEF99E6A8E18150A9
:1001E0009040A040E1F700C00000C0E0D0E0CE01A8
:1001F000E2D18FEF96E7A1E081509040A040E1F777
:1002000000C000002196C134D10589F78AE090E052
:10021000CED28AE090E0CBD2C0D18FEF93EDA0E3B5
:1002200081509040A040E1F700C0000000E010E0E5
:100230006BCF87EC90E00197F1F700C000000895C4
:1002400020EA3FE007C0F9013197F1F761507040B3
:10025000804090406115710581059105A1F70895D1
:10026000E82FF0E0DF012E9181E090E002C0880FDE
:10027000991F6A95E2F7282B2C939081809589230A
:1002800080830895E0916E00F0916F008E179F07B4
:1002900008F055C0309164003F3F09F43FC03091F1
:1002A00064003230B0F1E0916400F0E031964160DA
:1002B00050E04E9FD0014F9FB00D5E9FB00D1124B6
:1002C000A138B10520F0A058B0404B2F01C040E04C
:1002D000616070E06E9FD0016F9FB00D7E9FB00D8A
:1002E0001124A138B10520F0A058B0406B2F01C0F7
:1002F00060E0216030E02E9FD0012F9FB00D3E9F27
:10030000B00D1124A138B10540F0A058B0402B2FFA
:1003100005C020E040E060E001C020E0DC01AA0F61
:10032000BB1FA80FB91FE0917200F0917300EA0F94
:10033000FB1FDF014D93618311962C931197089554
:100340001F9320916E0030916F008217930708F081
:1003500058C0152F209164002F3F09F441C020910F
:1003600064002230C0F12091640030E02F5F3F4FE5
:100370001160A12FB0E0A29FF001A39FF00DB29FEA
:10038000F00D1124E138F10520F0E058F0401F2F66
:1003900001C010E0616070E0629FF001639FF00DAA
:1003A000729FF00D1124E138F10520F0E058F04083
:1003B0006F2F01C060E0416050E0429FF001439F19
:1003C000F00D529FF00D1124E138F10540F0E05896
:1003D000F0404F2F05C040E010E060E001C040E079
:1003E0009C01220F331F280F391FE0917200F091FA
:1003F0007300E20FF31FDF011D93618311964C938D
:1004000011971F910895DF93CF93CDB7DEB727974C
:100410000FB6F894DEBF0FBECDBF0BDFF89480910E
:100420006C0090916D009F838E83A0917200B091BB
:1004300073008D918983E0917000F091710080814B
:1004400090917400892B8C839081809174008095A9
:1004500089238D838D818A8388E08B835C816D8184
:1004600049813B812A818E819F81508347FD252FC1
:100470002083262F3A9539F0440F00C00000608396
:1004800000C00000F2CF4D91608338E0000001977A
:1004900061F7F0937100E093700049833B832A83F6
:1004A0009F838E837894C5DE27960FB6F894DEBFBF
:1004B0000FBECDBFCF91DF9108950F931F93DF93B0
:1004C000CF9300D0CDB7DEB78C0169838981642FCB
:1004D0004A83C6DE8981809370001092710081E0AA
:1004E00090E04A8102C0880F991F4A95E2F78093F5
:1004F000740010936F0000936E00809162009091E1
:10050000630090936D0080936C008FEF8093640084
:1005100080916C0090916D002CD290937300809329
:100520007200009741F020916C0030916D0060E006
:1005300070E0A90151D367DF809172009091730040
:10054000B2D28FEF90E7A2E081509040A040E1F757
:1005500000C00000C801880F991F800F911F909361
:100560006D0080936C0080916C0090916D0001D2C1
:100570009093730080937200009741F020916C007B
:1005800030916D0060E070E0A90126D30F900F90CC
:10059000CF91DF911F910F91089520916C003091C0
:1005A0006D00809172009091730060E070E0A9018D
:1005B00013D329DF089560E040E020E063DE23DF0D
:1005C00008954F925F926F927F928F929F92AF9217
:1005D000BF92CF92DF92EF92FF921F93CF93DF9360
:1005E000182F80916400181709F4ACC03091720084
:1005F00020917300412E55240894411C511C809178
:10060000640090E00196112391F5A901E52EE70120
:100610007E01F22EE7016701EE24FF244C01AA249B
:10062000BB241DC0F60161916F01662399F070E053
:100630006F5F7F4F882777FD8095982FCB017727B5
:100640006627A501940173D12058304040405040A6
:10065000388301C018820894E11CF11C2196809116
:100660006C0090916D00E816F906E0F269C01F3F3A
:1006700089F0542C442466247724A901E52EE7014F
:100680007E01F42EE7016701EE24FF244C01AA2429
:10069000BB244FC0A901E52FEF017E01F42EE70135
:1006A0006701EE24FF244C01AA24BB241DC0F601DF
:1006B00061916F01662399F070E06F5F7F4F88272B
:1006C00077FD8095982FCB0177276627A5019401A8
:1006D0002ED12058304040405040388301C018820D
:1006E0000894E11CF11C219680916C0090916D00A2
:1006F000E816F906E0F224C0F60121916F012223E9
:1007000099F030E02F5F3F4F442737FD4095542F3D
:10071000C301B201CDD0A501940109D120583040C8
:1007200040405040388301C018820894E11CF11CFD
:10073000219680916C0090916D00E816F906E0F228
:1007400010936400DF91CF911F91FF90EF90DF90A5
:10075000CF90BF90AF909F908F907F906F905F9061
:100760004F900895EF92FF920F931F93E42E262F40
:1007700030E040E050E0542F432F322F2227FF2457
:1007800000E010E02E293F29402B512B90E0A0E003
:10079000B0E0DC0199278827282B392B4A2B5B2BCB
:1007A000B901CA011F910F91FF90EF9008956F92C8
:1007B0007F928F929F92AF92BF92CF92DF92EF92F1
:1007C000FF920F931F93CF93DF93E0906E00F09012
:1007D0006F0000E010E03FEF832E912C25E5722E94
:1007E000B3E06B2E5C01CC24DD2450C09C2F882705
:1007F0008C1B9D0BB70187D0600F711FCB01B4011B
:1008000082D0672D74D0292F220F290F662D6FD02B
:10081000392F913099F0422F4095822F90E0A0E03F
:10082000B0E03230C9F050E060E070E0BA01552726
:100830004427BA2FA92F982F882714C0422F4095FC
:1008400050E060E070E0762F652F542F4427822F10
:1008500090E0A0E0B0E006C050E060E070E0DC01B5
:1008600099278827482B592B6A2B7B2BCE0168DDD3
:100870002196CE15DF0508F4B9CFC5DDC601B50157
:10088000DFDC0F5F1F4F0F3F110519F0C0E0D0E014
:10089000F0CFDF91CF911F910F91FF90EF90DF90FC
:1008A000CF90BF90AF909F908F907F906F90089562
:1008B000629FD001739FF001829FE00DF11D649F44
:1008C000E00DF11D929FF00D839FF00D749FF00DD0
:1008D000659FF00D9927729FB00DE11DF91F639F71
:1008E000B00DE11DF91FBD01CF0111240895991B21
:1008F00079E004C0991F961708F0961B881F7A9517
:10090000C9F780950895AA1BBB1B51E107C0AA1F18
:10091000BB1FA617B70710F0A61BB70B881F991FA0
:100920005A95A9F780959095BC01CD010895A1E253
:100930001A2EAA1BBB1BFD010DC0AA1FBB1FEE1F59
:10094000FF1FA217B307E407F50720F0A21BB30BA4
:10095000E40BF50B661F771F881F991F1A9469F720
:1009600060957095809590959B01AC01BD01CF017C
:100970000895CF93DF938230910510F482E090E0E8
:10098000E0917700F091780040E050E020E030E026
:1009900026C06081718168177907E0F068177907D0
:1009A00081F4828193812115310531F0D9011396AB
:1009B0009C938E9312972BC090937800809377002E
:1009C00026C04115510519F06417750718F4AB01DD
:1009D000E901DF019F0172816381E72FF62F3097D4
:1009E000C1F64115510501F1481B590B4430510521
:1009F00080F412968D919C911397209719F09B8308
:100A00008A8304C09093780080937700FD0132962A
:100A100046C0FD01E40FF51F819391934250504071
:100A200011965C934E933BC02091750030917600F7
:100A30002115310541F42091670030916800309311
:100A40007600209375002091690030916A0021158D
:100A5000310541F42DB73EB74091650050916600D5
:100A6000241B350BE0917500F0917600E217F30737
:100A7000A0F42E1B3F0B2817390778F0AC014E5F0E
:100A80005F4F2417350748F04E0F5F1F50937600D5
:100A9000409375008193919302C0E0E0F0E0CF01B4
:100AA000DF91CF910895CF93DF93009709F491C020
:100AB000FC01329713821282609177007091780066
:100AC0006115710581F420813181280F391F8091D2
:100AD0007500909176008217930799F5F093760050
:100AE000E093750076C0DB0180E090E002C0CD01AC
:100AF000D901AE17BF0748F412962D913C91139778
:100B000021153105A1F7CD0121C0B383A283EF01E7
:100B1000499159919E01240F351FA217B30779F40B
:100B20002D913C911197240F351F2E5F3F4F31833C
:100B3000208312962D913C91139733832283009743
:100B400029F4F0937800E093770043C0DC0113961A
:100B5000FC93EE9312974D915D91A40FB51FEA1788
:100B6000FB0769F420813181240F351F2E5F3F4F31
:100B7000EC0139832883228133813B832A83E0E09F
:100B8000F0E002C0FB01BC01DB0112968D919C914B
:100B900013970097B9F79B012E5F3F4F8D919C9162
:100BA0001197820F931F409175005091760048175E
:100BB000590779F4309729F4109278001092770051
:100BC00002C013821282225030403093760020936C
:100BD0007500DF91CF910895DC0101C06D93415004
:0A0BE0005040E0F70895F894FFCFAD
:0C0BEA004000C000FF2000790000000067
:00000001FF
